{
  "contractName": "Loteria",
  "abi": [
    {
      "inputs": [],
      "payable": false,
      "stateMutability": "nonpayable",
      "type": "constructor"
    },
    {
      "constant": false,
      "inputs": [],
      "name": "buy",
      "outputs": [],
      "payable": true,
      "stateMutability": "payable",
      "type": "function"
    },
    {
      "constant": false,
      "inputs": [],
      "name": "chooseWinner",
      "outputs": [],
      "payable": true,
      "stateMutability": "payable",
      "type": "function"
    },
    {
      "constant": false,
      "inputs": [
        {
          "internalType": "address payable",
          "name": "newManager_addr",
          "type": "address"
        }
      ],
      "name": "setManager",
      "outputs": [],
      "payable": true,
      "stateMutability": "payable",
      "type": "function"
    }
  ],
  "bytecode": "0x608060405234801561001057600080fd5b50336000806101000a81548173ffffffffffffffffffffffffffffffffffffffff021916908373ffffffffffffffffffffffffffffffffffffffff1602179055506000600260006101000a81548161ffff021916908361ffff1602179055506105568061007e6000396000f3fe6080604052600436106100345760003560e01c8063a6f2ae3a14610039578063cd38aa8714610043578063d0ebdbe71461004d575b600080fd5b610041610091565b005b61004b61021c565b005b61008f6004803603602081101561006357600080fd5b81019080803573ffffffffffffffffffffffffffffffffffffffff1690602001909291905050506103e5565b005b61012c61ffff16600260009054906101000a900461ffff1661ffff1610610120576040517f08c379a000000000000000000000000000000000000000000000000000000000815260040180806020018281038252600a8152602001807f45737461206c6c656e6f0000000000000000000000000000000000000000000081525060200191505060405180910390fd5b662386f26fc10000341161017f576040517f08c379a000000000000000000000000000000000000000000000000000000000815260040180806020018281038252602e8152602001806104d2602e913960400191505060405180910390fd5b60013390806001815401808255809150509060018203906000526020600020016000909192909190916101000a81548173ffffffffffffffffffffffffffffffffffffffff021916908373ffffffffffffffffffffffffffffffffffffffff160217905550506002600081819054906101000a900461ffff168092919060010191906101000a81548161ffff021916908361ffff16021790555050565b6000809054906101000a900473ffffffffffffffffffffffffffffffffffffffff1673ffffffffffffffffffffffffffffffffffffffff163373ffffffffffffffffffffffffffffffffffffffff16146102b9576040517f08c379a0000000000000000000000000000000000000000000000000000000008152600401808060200182810382526000815260200160200191505060405180910390fd5b61012c600260009054906101000a900461ffff1661ffff161115610328576040517f08c379a00000000000000000000000000000000000000000000000000000000081526004018080602001828103825260228152602001806105006022913960400191505060405180910390fd5b6000600260009054906101000a900461ffff1661ffff1661034761042f565b8161034e57fe5b06905060006001828154811061036057fe5b9060005260206000200160009054906101000a900473ffffffffffffffffffffffffffffffffffffffff1690508073ffffffffffffffffffffffffffffffffffffffff166108fc600a60074702816103b457fe5b049081150290604051600060405180830381858888f193505050501580156103e0573d6000803e3d6000fd5b505050565b8073ffffffffffffffffffffffffffffffffffffffff166108fc479081150290604051600060405180830381858888f1935050505015801561042b573d6000803e3d6000fd5b5050565b6000444260016040516020018084815260200183815260200182805480156104ac57602002820191906000526020600020905b8160009054906101000a900473ffffffffffffffffffffffffffffffffffffffff1673ffffffffffffffffffffffffffffffffffffffff1681526020019060010190808311610462575b505093505050506040516020818303038152906040528051906020012060001c90509056fe4c61207472616e73616363696f6e20646562652073657220646520616c206d656e6f7320302e303120657468657243616e7469646164206465207061727469636970616e746573206578636564696461a265627a7a72315820d512f07a9baa16b5f2d9f0916f00fdff2043e0f6c396ccdbfa992317ba8c0d1c64736f6c63430005100032",
  "source": "pragma solidity >=0.4.22 <0.7.0;\r\n\r\ncontract Loteria {\r\n    address payable manager;\r\n    address payable[] participants;\r\n    uint16 constant PARTICIPANTS_LIMIT = 300;\r\n    uint16 participants_count;\r\n\r\n\r\n    modifier managerOnly {\r\n        require(msg.sender == manager, \"\");\r\n        _;\r\n    }\r\n    //Generar un numero pseudoaleatorio teniendo en cuenta la dificultad del\r\n    //bloque, el tiempo y los participantes\r\n    function randomGenerator() private view returns (uint) {\r\n    \treturn uint(keccak256(abi.encodePacked(block.difficulty, now, participants)));\r\n    }\r\n    constructor () public{\r\n        manager = msg.sender;\r\n        participants_count = 0;\r\n    }\r\n    function buy() public payable {\r\n        require(participants_count<PARTICIPANTS_LIMIT, \"Esta lleno\");\r\n        require(msg.value > 0.01 ether, \"La transaccion debe ser de al menos 0.01 ether\");\r\n        participants.push(msg.sender);\r\n        participants_count++;\r\n    }\r\n    function chooseWinner() public payable managerOnly{\r\n        require(participants_count<=300, \"Cantidad de participantes excedida\");\r\n        uint winner_pos = randomGenerator()%participants_count;\r\n        address payable winner_addr = participants[winner_pos];\r\n        winner_addr.transfer((address(this).balance*7)/10);\r\n    }\r\n    function setManager(address payable newManager_addr) public payable {\r\n        newManager_addr.transfer(address(this).balance);\r\n    }\r\n}",
  "sourcePath": "C:\\Users\\usuario\\Desktop\\Blockchain\\Ethereum\\proyecto-loteria\\contracts\\Loteria.sol",
  "compiler": {
    "name": "solc",
    "version": "0.5.16+commit.9c3226ce.Emscripten.clang"
  },
  "schemaVersion": "3.0.23",
  "updatedAt": "2020-03-28T03:55:24.101Z",
  "devdoc": {
    "methods": {}
  },
  "userdoc": {
    "methods": {}
  }
}