{
  "contractName": "Loteria",
  "abi": [
    {
      "inputs": [
        {
          "internalType": "address",
          "name": "_token_contract_addr",
          "type": "address"
        }
      ],
      "payable": false,
      "stateMutability": "nonpayable",
      "type": "constructor"
    },
    {
      "constant": false,
      "inputs": [],
      "name": "buy",
      "outputs": [],
      "payable": true,
      "stateMutability": "payable",
      "type": "function"
    },
    {
      "constant": false,
      "inputs": [],
      "name": "chooseWinner",
      "outputs": [],
      "payable": true,
      "stateMutability": "payable",
      "type": "function"
    },
    {
      "constant": false,
      "inputs": [
        {
          "internalType": "address payable",
          "name": "newManager_addr",
          "type": "address"
        }
      ],
      "name": "setManager",
      "outputs": [],
      "payable": true,
      "stateMutability": "payable",
      "type": "function"
    }
  ],
  "bytecode": "0x608060405234801561001057600080fd5b506040516109d23803806109d28339818101604052602081101561003357600080fd5b810190808051906020019092919050505033600160006101000a81548173ffffffffffffffffffffffffffffffffffffffff021916908373ffffffffffffffffffffffffffffffffffffffff1602179055506000600360006101000a81548161ffff021916908361ffff160217905550806000806101000a81548173ffffffffffffffffffffffffffffffffffffffff021916908373ffffffffffffffffffffffffffffffffffffffff160217905550506108df806100f36000396000f3fe6080604052600436106100345760003560e01c8063a6f2ae3a14610039578063cd38aa8714610043578063d0ebdbe71461004d575b600080fd5b610041610091565b005b61004b610420565b005b61008f6004803603602081101561006357600080fd5b81019080803573ffffffffffffffffffffffffffffffffffffffff16906020019092919050505061060c565b005b61012c61ffff16600360009054906101000a900461ffff1661ffff1610610120576040517f08c379a000000000000000000000000000000000000000000000000000000000815260040180806020018281038252600a8152602001807f45737461206c6c656e6f0000000000000000000000000000000000000000000081525060200191505060405180910390fd5b66038d7ea4c68000341015610180576040517f08c379a000000000000000000000000000000000000000000000000000000000815260040180806020018281038252602b81526020018061082d602b913960400191505060405180910390fd5b67016345785d8a00003411156101e1576040517f08c379a00000000000000000000000000000000000000000000000000000000081526004018080602001828103825260278152602001806108846027913960400191505060405180910390fd5b600066038d7ea4c6800034816101f357fe5b0614610267576040517f08c379a00000000000000000000000000000000000000000000000000000000081526004018080602001828103825260198152602001807f456c207469636b6574206e6f20657320646976697369626c650000000000000081525060200191505060405180910390fd5b600066038d7ea4c68000348161027957fe5b04905060008090505b818110156103325760023390806001815401808255809150509060018203906000526020600020016000909192909190916101000a81548173ffffffffffffffffffffffffffffffffffffffff021916908373ffffffffffffffffffffffffffffffffffffffff160217905550506003600081819054906101000a900461ffff168092919060010191906101000a81548161ffff021916908361ffff160217905550508080600101915050610282565b5060008060009054906101000a900473ffffffffffffffffffffffffffffffffffffffff1690508073ffffffffffffffffffffffffffffffffffffffff1663a9059cbb33846040518363ffffffff1660e01b8152600401808373ffffffffffffffffffffffffffffffffffffffff1673ffffffffffffffffffffffffffffffffffffffff16815260200182815260200192505050602060405180830381600087803b1580156103e057600080fd5b505af11580156103f4573d6000803e3d6000fd5b505050506040513d602081101561040a57600080fd5b8101908080519060200190929190505050505050565b600160009054906101000a900473ffffffffffffffffffffffffffffffffffffffff1673ffffffffffffffffffffffffffffffffffffffff163373ffffffffffffffffffffffffffffffffffffffff16146104e3576040517f08c379a000000000000000000000000000000000000000000000000000000000815260040180806020018281038252600b8152602001807f4e6f74206d616e6167657200000000000000000000000000000000000000000081525060200191505060405180910390fd5b61012c61ffff16600360009054906101000a900461ffff1661ffff1614610555576040517f08c379a000000000000000000000000000000000000000000000000000000000815260040180806020018281038252602c815260200180610858602c913960400191505060405180910390fd5b600061012c61ffff16610566610656565b8161056d57fe5b06905060006002828154811061057f57fe5b9060005260206000200160009054906101000a900473ffffffffffffffffffffffffffffffffffffffff1690508073ffffffffffffffffffffffffffffffffffffffff166108fc600a60074702816105d357fe5b049081150290604051600060405180830381858888f193505050501580156105ff573d6000803e3d6000fd5b506106086106f8565b5050565b8073ffffffffffffffffffffffffffffffffffffffff166108fc479081150290604051600060405180830381858888f19350505050158015610652573d6000803e3d6000fd5b5050565b6000444260026040516020018084815260200183815260200182805480156106d357602002820191906000526020600020905b8160009054906101000a900473ffffffffffffffffffffffffffffffffffffffff1673ffffffffffffffffffffffffffffffffffffffff1681526020019060010190808311610689575b505093505050506040516020818303038152906040528051906020012060001c905090565b60006040519080825280602002602001820160405280156107285781602001602082028038833980820191505090505b506002908051906020019061073e92919061075f565b506000600360006101000a81548161ffff021916908361ffff160217905550565b8280548282559060005260206000209081019282156107d8579160200282015b828111156107d75782518260006101000a81548173ffffffffffffffffffffffffffffffffffffffff021916908373ffffffffffffffffffffffffffffffffffffffff1602179055509160200191906001019061077f565b5b5090506107e591906107e9565b5090565b61082991905b8082111561082557600081816101000a81549073ffffffffffffffffffffffffffffffffffffffff0219169055506001016107ef565b5090565b9056fe456c20746f6b656e2063756573746120756e2066696e6e65792079206e6f20657320646976697369626c654c612063616e7469646164206465207061727469636970616e746573206465626520736572206465203330304e6f2073652070756564656e20636f6d70726172206d617320646520313030207469636b657473a265627a7a723158200ee335aa9abf439d466fbc6b28eb1d653ab28548b0f5dabc29c777ca9e4c2ffe64736f6c63430005100032",
  "source": "pragma solidity >=0.4.22 <0.7.0;\r\n\r\nimport './LoteriaToken.sol';\r\n\r\ncontract Loteria {\r\n    address token_contract_addr;\r\n    address payable manager;\r\n    address payable[] participants;\r\n    uint16 constant PARTICIPANTS_LIMIT = 300;\r\n    uint16 participants_count;\r\n\r\n\r\n    modifier managerOnly {\r\n        require(msg.sender == manager, \"Not manager\");\r\n        _;\r\n    }\r\n    //Generar un numero pseudoaleatorio teniendo en cuenta la dificultad del\r\n    //bloque, el tiempo y los participantes\r\n    function randomGenerator() private view returns (uint) {\r\n    \treturn uint(keccak256(abi.encodePacked(block.difficulty, now, participants)));\r\n    }\r\n\r\n\r\n    constructor (address _token_contract_addr) public{\r\n        manager = msg.sender;\r\n        participants_count = 0;\r\n        token_contract_addr = _token_contract_addr;\r\n    }\r\n\r\n    //Se deben mintear los tokens en la Loteria antes de que se transfieran los tokens\r\n    //https://ethereum.stackexchange.com/questions/65899/transfer-erc20-token-from-a-smart-contract\r\n    function buy() public payable {\r\n        require(participants_count<PARTICIPANTS_LIMIT, \"Esta lleno\");\r\n        require(msg.value >= 0.001 ether, \"El token cuesta un finney y no es divisible\");\r\n        require(msg.value <= 0.1 ether, \"No se pueden comprar mas de 100 tickets\");\r\n        require(msg.value%1 finney==0, \"El ticket no es divisible\");\r\n        uint participaciones = msg.value/1 finney;\r\n        for (uint i = 0; i < participaciones; i++){\r\n            participants.push(msg.sender);\r\n            participants_count++;\r\n        }\r\n        LoteriaToken ltn = LoteriaToken(token_contract_addr);\r\n        ltn.transfer(msg.sender, participaciones);\r\n    }\r\n\r\n    function chooseWinner() public payable managerOnly{\r\n        require(participants_count==PARTICIPANTS_LIMIT, \"La cantidad de participantes debe ser de 300\");\r\n        uint winner_pos = randomGenerator()%PARTICIPANTS_LIMIT;\r\n        address payable winner_addr = participants[winner_pos];\r\n        winner_addr.transfer((address(this).balance*7)/10);\r\n        reset();\r\n    }\r\n\r\n\r\n    function setManager(address payable newManager_addr) public payable {\r\n        newManager_addr.transfer(address(this).balance);\r\n    }\r\n\r\n    function reset() private {\r\n        participants = new address payable[](0);\r\n        participants_count = 0;\r\n    }\r\n}",
  "sourcePath": "C:\\Users\\usuario\\Desktop\\Blockchain\\Ethereum\\proyecto-loteria\\contracts\\Loteria.sol",
  "compiler": {
    "name": "solc",
    "version": "0.5.16+commit.9c3226ce.Emscripten.clang"
  },
  "schemaVersion": "3.0.23",
  "updatedAt": "2020-03-29T06:20:06.698Z",
  "networkType": "ethereum",
  "devdoc": {
    "methods": {}
  },
  "userdoc": {
    "methods": {}
  }
}